:020000040800F2
:10000000A843002065020008490300084B030008CC
:100010004F030008530300085703000800000000C6
:10002000000000000000000000000000CD010008FA
:100030005B0300080000000011020008071F000811
:100040007F0200087F0200087F0200087F0200088C
:100050007F0200087F0200087F0200087F0200087C
:100060007F0200087F0200087F0200087F0200086C
:100070007F0200087F0200087F0200087F0200085C
:100080007F0200087F0200087F0200087F0200084C
:100090007F0200087F0200087F0200087F0200083C
:1000A0007F0200087F0200087F0200087F0200082C
:1000B0007F0200087F0200087F0200087F0200081C
:1000C0007F0200087F0200087F0200087F0200080C
:1000D0007F0200087F0200087F0200087F020008FC
:1000E0007F0200087F0200087F02000800F002F88B
:1000F00000F05CF80AA090E8000C82448344AAF166
:100100000107DA4501D100F051F8AFF2090EBAE863
:100110000F0013F0010F18BFFB1A43F0010318473B
:100120004000000060000000103A24BF78C878C189
:10013000FAD8520724BF30C830C144BF04680C60ED
:10014000704700000023002400250026103A28BF35
:1001500078C1FBD8520728BF30C148BF0B60704739
:100160001020000800000020800000002801000886
:10017000902000088000002028430000440100086F
:100180000000000065000000FE1F000800000000E5
:10019000871F0008891F00088B1F0008851F0008A3
:1001A000000000001FB51FBD10B510BD01F0F1FE2D
:1001B0001146FFF7F7FF00F0A1F801F00FFF03B4BD
:1001C000FFF7F2FF03BC01F013FF0000224B196898
:1001D0000868B0E8F00F80F30988BFF36F8F4FF025
:1001E000000080F311884EF00D0E704700000000F3
:1001F00006480068006880F3088862B661B6BFF3FD
:100200004F8FBFF36F8F00DF00BF00BF08ED00E02E
:10021000EFF30980BFF36F8F0F4B1A6820E9F00FDF
:10022000106008B54FF0BF0080F31188BFF34F8F07
:10023000BFF36F8F01F0C5F84FF0000080F3118815
:10024000BDE8084019680868B0E8F00F80F3098835
:10025000BFF36F8F704700BF28000020EFF30580C9
:10026000704700000948804709480047FEE7FEE75D
:10027000FEE7FEE7FEE7FEE7FEE7FEE7FEE7FEE756
:1002800004480549034A054B70470000350B000838
:10029000ED000008A8410020A8430020A84100204C
:1002A00008B50121102000F06FFB4FF40050ADF8AD
:1002B000000010208DF8030003208DF8020069462D
:1002C000044800F0ABF84FF40051024800F051F937
:1002D00008BD0000001001400FE04FF40051164827
:1002E00000F049F9642000F0C0FF4FF400511248BB
:1002F00000F03FF9642000F0B8FFEEE71CB5652080
:1003000001F022FEFFF7CCFF002001210346282246
:10031000CDE9001009A1AFF23F0000F088FD01F027
:10032000AEF900201CBD01B502E00098401E00900F
:1003300000980028F9D108BD001001404C45445FE9
:100340005441534B31000000704700BFFEE700BF2F
:10035000FEE700BFFEE700BFFEE7704710B50446AA
:10036000CA48844208D10121042000F027FB002163
:10037000042000F023FB46E0C548844208D1012157
:10038000082000F01BFB0021082000F017FB3AE0DA
:10039000C048844208D10121102000F00FFB002149
:1003A000102000F00BFB2EE0BB48844208D1012155
:1003B000202000F003FB0021202000F0FFFA22E0C3
:1003C000B648844208D10121402000F0F7FA00210C
:1003D000402000F0F3FA16E0B148844208D1012130
:1003E000802000F0EBFA0021802000F0E7FA0AE01C
:1003F000AC48844207D10121801500F0DFFA0021CA
:10040000A01500F0DBFA10BD10B50121084600F080
:10041000D5FA0021012000F0D1FA10BD2DE9F041FC
:10042000024600250026002000230024002791F822
:1004300003C00CF00F0591F803C01CF0100F03D09F
:1004400091F802C04CEA050591F800C0BCF1000F1C
:1004500031D0146800202BE04FF0010C0CFA00F3AF
:10046000B1F800C00CEA03069E4220D183004FF091
:100470000F0C0CFA03F7BC4305FA03FC4CEA040426
:1004800091F803C0BCF1280F06D14FF0010C0CFA13
:1004900000FCC2F814C00AE091F803C0BCF1480F98
:1004A00005D14FF0010C0CFA00FCC2F810C0401C42
:1004B0000828D1D31460B1F800C0BCF1FF0F34DDBF
:1004C000546800202EE000F1080C4FF0010808FAF3
:1004D0000CF3B1F800C00CEA03069E4221D1830060
:1004E0004FF00F0C0CFA03F7BC4305FA03FC4CEA7F
:1004F000040491F803C0BCF1280F05D100F1080CE9
:1005000008FA0CF8C2F8148091F803C0BCF1480F47
:1005100007D100F1080C4FF0010808FA0CF8C2F8F6
:100520001080401C0828CED35460BDE8F0814FF6FF
:10053000FF710180022181700421C1707047024661
:10054000002093680B4201D0012000E0002070479A
:100550000146886880B2704702460020D3680B428B
:1005600001D0012000E0002070470146C86880B239
:10057000704701617047416170470AB1016100E055
:1005800041617047C16070474FF480320A43826115
:100590008161826182698269704702460020424B14
:1005A00018684FF68073184040EA021008433E4B2B
:1005B000186070473D49C8617047F0B50A4600238E
:1005C00000240021002500F00046B6F1004F02D1C2
:1005D000354EF16901E0344E7168C0F3034583B2D2
:1005E00000F44016B6F5401F08D121F070612E4E80
:1005F000766826F070662C4F7E6012E000F480165C
:10060000B6F5801F06D1032606FA05F4A14341F092
:10061000706106E0460D360103FA06F6B14341F07B
:10062000706122B1460D360103FA06F6314300F03F
:100630000046B6F1004F02D11B4EF16101E01A4EA7
:100640007160F0BD30B500228B071C0F0F2303FA39
:1006500004F2154B08338C1053F824309343124C9A
:1006600008348D1044F8253023468C1053F824307C
:100670008C07240F00FA04F423430B4C08348D102C
:1006800044F8253030BD0A49086070470008014031
:10069000000C01400010014000140140001801400E
:1006A000001C0140002001400000014000002042E9
:1006B000DC002042DD48006840F00100DB490860B2
:1006C00008464068DA490840D8494860084600684A
:1006D000D8490840D54908600846006820F48020C1
:1006E00008600846406820F4FE0048604FF41F0090
:1006F00088607047CD49096821F48031CB4A116088
:100700001146096821F480211160B0F5803F03D0C3
:10071000B0F5802F0ED106E0C449096841F480315C
:10072000C24A116007E0C149096841F4A021BF4AEB
:10073000116000E000BF00BF704710B50146002205
:10074000002300204A11012A02D1B84C236806E098
:10075000022A02D1B54C236A01E0B44C636A01F06D
:100760001F02012494401C4201D0012000E000201F
:1007700010BD38B5002000900024002500BF3120B6
:10078000FFF7DBFF05460098401C00900098B0F58D
:10079000A06F01D0002DF2D03120FFF7CEFF08B1BD
:1007A000012400E00024204638BD014600209F4A75
:1007B000106820F0F80040EAC100106070479E49C0
:1007C0000860704702460020984B586820F47C105F
:1007D00042EA01031843954B5860704796490866F2
:1007E000704701460020914A506820F003000843FA
:1007F000506070478D48406800F00C00704701461B
:1008000000208A4A506820F0F0000843506070478A
:1008100001460020854A506820F4E060084350609B
:10082000704701460020814A506820F4605040EA39
:10083000C1005060704729B17C4A527A02437B4B19
:100840005A7204E0794A527A8243784B5A7270475E
:100850007A490860704701460020744A506820F4C5
:1008600040400843506070470021754A11706F4A3C
:1008700082F82010012802D0042808D103E00121C9
:100880006F4A117004E005216D4A117000E000BF4D
:1008900000BF70476B49086070476449096A0143AB
:1008A000624A11627047674944390860704730B541
:1008B00000210022002400235C4D6D6805F00C012E
:1008C00021B1042905D0082923D105E05E4D05603A
:1008D00022E05D4D05601FE0544D6D6805F4701217
:1008E000524D6D6805F48034022505EB92421CB927
:1008F000564D554305600BE04C4D6D6815F4003FB7
:1009000003D0524D5543056002E04F4D55430560FD
:1009100002E04D4D056000BF00BF444D6D6805F01D
:10092000F00109094A4D6B5C0568DD4045603F4DAB
:100930006D6805F4E061090A454D6B5C4568DD4072
:1009400085603A4D6D6805F46051C90A404D6B5C95
:100950004568DD40C560354D6D6805F44041890B43
:100960003C4D6B5CC568B5FBF3F5056130BD29B145
:100970002E4A526902432D4B5A6104E02B4A5269B8
:1009800082432A4B5A61704729B1284A926902432F
:10099000264B9A6104E0254A92698243234B9A616F
:1009A000704729B1214AD2690243204BDA6104E041
:1009B0001E4AD26982431D4BDA61704729B11B4A36
:1009C000D2680243194BDA6004E0184AD2688243C5
:1009D000164BDA60704729B1144A12690243134B6F
:1009E0001A6104E0114A12698243104B1A61704780
:1009F00014494039086070470F49C86470470B4973
:100A0000C87170470948406A40F0807007494862E1
:100A1000704701460020054A92680A4201D0012031
:100A200000E00020704701498872704700100240C2
:100A30000000FFF8FFFFF6FE00004242D8004242ED
:100A4000201002408004424200127A0000093D005A
:100A500000000020100000200CB500200190009044
:100A60006B48006840F480306949086000BF6848FE
:100A7000006800F4003000900198401C019000983C
:100A800018B90198B0F5A06FF1D16148006810F471
:100A9000003F02D00120009001E00020009000986B
:100AA000012842D15B48006840F0100059490860B5
:100AB0000846006820F0030008600846006840F01F
:100AC0000200086052484068514948600846406842
:100AD00048600846406840F48060486008464068C6
:100AE00020F47C1048600846406840F4E8104860F4
:100AF0000846006840F08070086000BF4448006805
:100B000010F0007FFAD04248406820F003004049CE
:100B100048600846406840F00200486000BF3C481A
:100B2000406800F00C000828F9D10CBD10B5FFF7A3
:100B300093FF10BD10B53648006840F001003449FD
:100B40000860084640683449084031494860084612
:100B50000068324908402E4908600846006820F4C1
:100B6000802008600846406820F4FE0048604FF48A
:100B70001F008860FFF7DAFF4FF000602849086027
:100B800010BD10B5002100200022214B5B6803F04E
:100B90000C0121B1042906D0082928D107E0214BF6
:100BA000214C236027E01F4B1F4C236023E0184B90
:100BB0005B6803F47010164B5B6803F48032022309
:100BC00003EB904022B9194B4343174C23600DE0CF
:100BD0000F4B5B6813F4003F04D0144B4343124C9B
:100BE000236003E00F4B43430F4C236003E00D4BA6
:100BF0000D4C236000BF00BF054B5B68C3F30313BC
:100C00000B4CE15C084B1B68CB40074C236010BDCC
:100C100000100240002002400000FFF8FFFFF6FE37
:100C200008ED00E000127A001400002000093D00E9
:100C30001800002000F1080141604FF0FF31816091
:100C400000F10801C16001610021016070470021CD
:100C50000161704742684A6093688B60936859608D
:100C60009160086103685B1C0360704710B5024621
:100C70000B685C1C01D1106907E002F1080000E07C
:100C80004068446824689C42FAD944684C604C68C7
:100C9000A160886041600A611468641C146010BD22
:100CA00001460A69D1E901309860D1E90103586031
:100CB0005068884201D1886850600020086110683F
:100CC000401E10601068704710B5002407E004EB68
:100CD0008401FE4A02EB8100FFF7ACFF641C052C87
:100CE000F5D3FB48FFF7A6FFFA48FFF7A3FFFA4842
:100CF000FFF7A0FFF948FFF79DFFF948FFF79AFFBC
:100D0000F348F8490860F348F749086010BD10B58A
:100D1000044601F0DBF8F5480068401CF349086020
:100D2000F348006840B9F2480460084600680128AA
:100D30000DD1FFF7C9FF0AE0EE48006838B9EC486A
:100D40000068C06AE16A884201D8E9480460EA485C
:100D50000068401CE849086094F82C100120884085
:100D6000E64909680843E5490860E16A01EB810149
:100D7000D64A02EB8100211DFFF76CFF01F0B5F8A8
:100D8000DC48006868B1DA480068C06AE16A8842F5
:100D900007D24FF08050DA490860BFF34F8FBFF39E
:100DA0006F8F10BD2DE9FF5F80460E469146DDE94D
:100DB0000E7A109CA9F10100216B01EB800B2BF046
:100DC000070B86B1002507E0715D04F13400415541
:100DD000705D00B902E06D1C102DF5D300BF00213D
:100DE0004320015502E0002084F83400052F00D391
:100DF0000427E762201DFFF72AFF04F11800FFF720
:100E000026FF2461C7F10500A061646200206064D0
:100E100084F8480041465846039A01F028F82060BB
:100E2000BAF1000F01D0CAF80040BDE8FF9F2DE9DC
:100E3000FF4F85B0804689461746DDE912ABB80002
:100E400000F079FF064656B14C2000F074FF0446CE
:100E50000CB1266304E0304600F0CAFF00E0002435
:100E60007CB10020CDE900ABCDE902403A464946CD
:100E70004046089BFFF796FF2046FFF748FF0125F5
:100E800001E04FF0FF35284609B0BDE8F08F9549E5
:100E90000968096809B9012100E0002121B14FF07A
:100EA000FF31984A116006E08E490968C968C86830
:100EB000944A41681160704710B50446206B00F0F9
:100EC00097FF204600F094FF10BD70B5054600F076
:100ED000FDFF15B98648006800E028460446201D3D
:100EE000FFF7DEFE78B9E06A00EB8000774951F841
:100EF000200040B994F82C10012088407F490968EF
:100F000081437E480160A06A18B104F11800FFF720
:100F1000C7FE79480068401C77490860744800683B
:100F2000844209D1211D6D48FFF794FE7648006880
:100F3000401C7549086009E06C480068401E6B4918
:100F400008602046FFF7B8FFFFF7A1FF00F0CDFFD4
:100F50006848006858B166480068844207D14FF07D
:100F6000805067490860BFF34F8FBFF36F8F70BD2C
:100F70002DE9F041002765480068002863D16448E6
:100F80000068451C624805608DB95648D0F800805D
:100F900055480068534908605348C0F800805D48D0
:100FA0000068401C5B490860FFF771FF00BF5548AF
:100FB000006885423BD300BF4A480068006808B912
:100FC000012000E0002020B14FF0FF304D490860C3
:100FD0002CE044480068C068C4686668B54202D224
:100FE0004848066022E0201DFFF75AFEA06A18B1AB
:100FF00004F11800FFF754FE94F82C1001208840EB
:101000003E49096808433D490860E16A01EB8101F6
:101010002E4A02EB8100211DFFF71CFE3449E06AD5
:101020000968C96A8842C7D30127C5E700BF3048AD
:101030000068C06A00EB8000244951F820000128B4
:1010400000D9012704E034480068401C3249086098
:101050003248006800B101273846BDE8F08170B51C
:101060000024002600F032FF28480068401E27496F
:1010700008600846006800287AD11C4800680028EB
:1010800076D04FE01448C068C46804F11800FFF738
:1010900007FE201DFFF704FE94F82C100120884065
:1010A00016490968084315490860E16A01EB8101A6
:1010B000064A02EB8100211DFFF7CCFD0C49E06AD6
:1010C0000968C96A88422DD3012029E080000020E8
:1010D000E4000020F80000200C0100202001002086
:1010E000340100205C00002060000020300000205F
:1010F000280000203C0000204C0000203800002088
:1011000004ED00E0500000202C00002058000020DA
:10111000340000204800002040000020440000204F
:10112000FE490860FE48006808B9012000E0002080
:101130000028A7D00CB1FFF7AAFEFA48056865B1F0
:1011400000BFFFF715FF10B10120F44908606D1EC4
:10115000002DF6D10020F3490860F048006838B14E
:1011600001263007F0490860BFF34F8FBFF36F8F40
:1011700000F0BBFE304670BD2DE9F04105460E463D
:10118000EA480768EA480068001DFFF789FD50B982
:10119000E748006890F82C1001208840E54909686C
:1011A0008143E4480160681C07D136B1E04801681A
:1011B000091DE148FFF74EFD1AE07C19DC48006884
:1011C0004460BC4207D2DA480168091DDB48006868
:1011D000FFF74CFD0CE0D6480168091DD8480068AF
:1011E000FFF744FDD7480068844201D2D548046027
:1011F000BDE8F081D4480068401CD34908607047BE
:101200002DE9F047044688464FF00009FFF7F2FF4A
:10121000C6480668206800EB08052068B04207D978
:101220002068A8420BD9B54209D94FF0010906E060
:101230002068A84201D8B54201D94FF001092560C4
:10124000B9F1000F03D0A81B0021FFF795FFFFF7AE
:1012500006FF07463FB94FF08050B3490860BFF31F
:101260004F8FBFF36F8FBDE8F08770B50446002540
:1012700044B1FFF7BFFF00212046FFF77DFFFFF7D6
:10128000EEFE05463DB94FF08050A7490860BFF318
:101290004F8FBFF36F8F70BD70B5044600F016FE20
:1012A00014B9A348006800E020460646F56A00F03D
:1012B0001CFE284670BD70B5024600BFBF25EFF387
:1012C000118485F31188BFF34F8FBFF36F8F00BF79
:1012D000214612B9964C246800E014462346D86A89
:1012E00000BF81F3118800BF70BD2DE9F047804633
:1012F0000D464FF00009052D00D3042500F0E6FD52
:10130000B8F1000F02D18A48006800E04046044668
:10131000E66AAE4251D0B5420BD985480068844296
:101320000DD083480068C06AA84208D84FF0010970
:1013300005E07F480068844201D14FF00109E76A67
:10134000E562A06910F0004F02D1C5F10500A0616F
:1013500007EB87017D4A02EB81016069884201D178
:10136000012000E00020E0B1201DFFF799FC30B91A
:101370000120B8406F49096881436E48016094F8C4
:101380002C10012088406B490968084369490860AE
:10139000E16A01EB81016D4A02EB8100211DFFF73B
:1013A00059FCB9F1000F07D04FF080505E4908603A
:1013B000BFF34F8FBFF36F8F00BF00F096FDBDE806
:1013C000F0876148006818B10120544908601DE0A9
:1013D00000205249086057480068B0FA80F0C0F118
:1013E0001F0101EB8102594B03EB820042685268F6
:1013F000426000F108024368934202D14268526899
:1014000042604268D2684A4B1A6000BF704770B5AC
:10141000054600F05BFD15B94548006800E0284628
:101420000446201DFFF73CFC78B9E06A00EB800021
:10143000464951F8200040B994F82C10012088400A
:101440003C49096881433B480160A06A18B104F136
:101450001800FFF725FC211D3748FFF7FBFB94F828
:101460004800012802D1002084F8480000F03DFD2A
:101470003748006828B100F029FDFFF708FD00F0AB
:1014800034FD2B480068844217D13148006840B1D0
:101490004FF0805024490860BFF34F8FBFF36F8F28
:1014A0000BE0254800682B490968884203D10020D9
:1014B0001F49086001E0FFF784FF70BD10B50146C9
:1014C00000200A461C4C5369A34201D1012300E0CD
:1014D000002373B1124C936AA34201D1012300E0AF
:1014E000002333B9936A0BB9012300E0002303B151
:1014F000012010BD70B505462C460D480068844299
:101500004DD04CB300F0E2FC2046FFF7D7FFE8B324
:10151000201DFFF7C5FB94F82C101EE044000020AE
:101520000C0100204000002004ED00E03400002009
:101530002800002038000020340100206000002036
:101540005C00002050000020580000208000002097
:101550003C0000203000002021E001208840FE49AE
:1015600009680843FC490860E16A01EB8101FB4A14
:1015700002EB8100211DFFF76DFBF949E06A096864
:10158000C96A884209D34FF0805000E005E0F54970
:101590000860BFF34F8FBFF36F8F00F0A6FC70BDE4
:1015A0002DE9F04106460027344600BFBF21EFF386
:1015B000118081F31188BFF34F8FBFF36F8F00BF8E
:1015C00005462046FFF77AFF20B3E7480068E0B9F8
:1015D000E349E06A0968C96A884200D30127201DEF
:1015E000FFF75EFB94F82C1001208840DA49096867
:1015F0000843D9490860E16A01EB8101D74A02EB4F
:101600008100211DFFF726FB04E004F11801D748F3
:10161000FFF720FB00BF85F3118800BF3846BDE807
:10162000F08110B516E000F051FCD148C068C468E4
:10163000201DFFF735FBCF480068401ECD490860EC
:10164000CD480068401ECC49086000F04EFC2046A2
:10165000FFF732FCC84800680028E4D110BD00BF85
:10166000FFF7DFFFBD4800680128F9D94FF080502F
:10167000BC490860BFF34F8FBFF36F8FF0E71CB515
:10168000BE4800210B468022CDE90010BCA1BE4817
:10169000FFF7CDFB0446012C14D100BFBF2080F31F
:1016A0001188BFF34F8FBFF36F8F00BF4FF0FF3034
:1016B000B64908600120B64908600020B5490860B5
:1016C00000F0EEFB1CBD10B500BFBF2080F31188F9
:1016D000BFF34F8FBFF36F8F00BF0020AC4908608E
:1016E00000F0F3FB10BDAB49086870470021A94A20
:1016F000106870479F4800687047014611B99848C4
:10170000006800E00846024602F13400704770B5F8
:1017100005460C469248016818312846FFF7A6FA9C
:1017200001212046FFF728FD70BD70B506460C4626
:10173000154644F000408A49096888618848016874
:1017400018313046FFF786FA01212846FFF714FDCD
:1017500070BD70B50646F068C46804F11800FFF764
:101760009FFA81480068A8B9201DFFF799FA94F8FC
:101770002C100120884078490968084376490860A0
:10178000E16A01EB8101754A02EB8100211DFFF73F
:1017900061FA04E004F118017448FFF75BFA70493C
:1017A000E06A0968C96A884204D9012501207A499A
:1017B000086000E00025284670BD70B505460E465D
:1017C00046F000402860EC682846FFF769FA201DC3
:1017D000FFF766FA94F82C10012088405E490968EA
:1017E00008435D490860E16A01EB81015B4A02EB55
:1017F0008100211DFFF72EFA5949E06A0968C96A7C
:10180000884202D901206449086070BD10B50446C1
:1018100000F05CFB6148006820605E480068606022
:1018200000F063FB10BD5D49096801605949096812
:101830004160704770B506460C4600F047FB5548BE
:1018400002687068131A2068401C01D1002517E057
:10185000524930680968884204D07068904201D8C3
:1018600001250DE02068984207D92068C01A206041
:101870003046FFF7D8FF002502E000202060012558
:1018800000F033FB284670BD0120434908607047D3
:1018900033490968886932490968C96AC1F1050193
:1018A0002F4A12689161704770B506460D4600F0E8
:1018B0000DFB2B480068406C88B901202849096855
:1018C00081F848005DB101212846FFF755FC4FF033
:1018D000805024490860BFF34F8FBFF36F8F00F033
:1018E00004FB00F0F3FA1E480068446C4CB126B1CA
:1018F00000201B490968486403E0601E1849096814
:10190000486400201649096881F8480000F0EDFAA3
:10191000204670BD2DE9F0410746884614461D4615
:1019200000F0D4FA0E48006890F8480002283ED033
:101930000B49096801F14400496CB9430160012079
:101940000749096881F8480055B301212846FFF787
:1019500013FC4FF0805024E038000020800000206D
:101960002800002004ED00E0580000200C010020B9
:1019700020010020300000202C0000205400002016
:1019800049444C45000000005F160008500000204C
:101990003C000020340000204400002048000020CB
:1019A00005E0AD490860BFF34F8FBFF36F8F00F0C4
:1019B0009CFA00F08BFA1CB1A8480068406C2060CB
:1019C000A648006890F84800022801D0002608E0E8
:1019D000A249096801F14400496C21EA080101604B
:1019E000012600209D49096881F8480000F07DFA31
:1019F0003046BDE8F0812DE9F04781460D46164698
:101A00001F464FF0010A4C4600F060FA0FB1606CBF
:101A1000386094F84880022084F84800052E17D2D8
:101A2000DFE806F01503070B0D00606C28436064C7
:101A30000FE0606C401C60640BE0656409E0B8F185
:101A4000020F01D0656401E04FF0000A01E000E000
:101A500000BF00BFB8F1010F22D1201DFFF720F910
:101A600094F82C10012088407D49096808437C497E
:101A70000860E16A01EB81017A4A02EB8100211DD5
:101A8000FFF7E8F87549E06A0968C96A884207D92A
:101A90004FF0805070490860BFF34F8FBFF36F8FD6
:101AA00000F023FA5046BDE8F0872DE9F84F834651
:101AB0000D4616461F46DDF828A0012000905C4622
:101AC00000BFBF21EFF3118081F31188BFF34F8F67
:101AD000BFF36F8F00BF81460FB1606C386094F820
:101AE0004880022084F84800052E17D2DFE806F06F
:101AF0001503070B0D00606C284360640FE0606CF9
:101B0000401C60640BE0656409E0B8F1020F01D08D
:101B1000656401E00020009001E000E000BF00BF2C
:101B2000B8F1010F2CD150480068A8B9201DFFF76B
:101B3000B7F894F82C1001208840494909680843F7
:101B400047490860E16A01EB8101464A02EB8100E6
:101B5000211DFFF77FF804E004F118014348FFF767
:101B600079F83E49E06A0968C96A884208D9BAF139
:101B7000000F02D00120CAF8000001203C49086093
:101B800000BF89F3118800BF0098BDE8F88F2DE9E8
:101B9000F04105460E462C4600BFBF21EFF31180F1
:101BA00081F31188BFF34F8FBFF36F8F00BF0746DC
:101BB00094F84880022084F84800606C401C6064FF
:101BC000B8F1010F29D128480068A8B9201DFFF7F6
:101BD00067F894F82C1001208840214909680843CF
:101BE0001F490860E16A01EB81011E4A02EB810096
:101BF000211DFFF72FF804E004F118011B48FFF73F
:101C000029F81649E06A0968C96A884205D90EB1FF
:101C10000120306001201649086000BF87F3118859
:101C200000BFBDE8F08170B5054615B90B480068E6
:101C300000E02846064600F049F996F848000228D8
:101C400004D1002086F84800012400E0002400F0C0
:101C50004CF9204670BD000004ED00E02800002093
:101C60003800002080000020580000200C010020D7
:101C70004400002010B50146714800E00068036888
:101C80008B42FBD30246436813448B4204D1436822
:101C90004C682344436001460A464B681344046879
:101CA000A34211D1674C03682468A34208D04B6853
:101CB0000468646823444B6003681B680B6005E09C
:101CC000604B1B680B6001E003680B60884200D02A
:101CD000016010BD30B54FF480435B4810F0070F32
:101CE00005D0C01D20F00700574C041B1B1B0246EB
:101CF000534C22600024524D6C60D018083820F0FC
:101D00000700504C206000244E4D2D686C604D4DF6
:101D10002D682C601146441A4C604A4C24680C60B3
:101D20004A4D4C682C604A4D4C682C604FF0004482
:101D3000484D2C6030BD2DE9F04105464FF00008BC
:101D4000FFF758FA3F48006808B9FFF7C3FF41485A
:101D50000068054247D145B1083515F0070F04D09A
:101D600005F00700C0F108000544002D3BD03848BD
:101D70000068854237D8324E3046046801E0264676
:101D800024686068A84202D220680028F7D12D4854
:101D90000068844227D0306800F10808206830606D
:101DA0006068401B102807D967196068401B78607D
:101DB00065603846FFF75EFF254960680968081AC4
:101DC000234908600846006820490968884203D210
:101DD0001F4800681D4908601E496068096808437B
:101DE000606000202060FFF73AF94046BDE8F081CE
:101DF00070B506463546D6B1083D2C461549606893
:101E00000968084213D0206888B9124960680968D7
:101E100088436060FFF7EEF90D496068096808447F
:101E20000B4908602046FFF725FFFFF718F970BD42
:101E30000748006870470548006870477047000011
:101E40007400002064000020480100206C00002085
:101E5000680000207000002000BFBF2080F31188C0
:101E6000BFF34F8FBFF36F8F00BF00BFFEE7001FB0
:101E70004FF080730360001F21F001030360001F17
:101E80002D4B0360143802602038704700204FF05B
:101E9000E02108618861294848610720086170478E
:101EA00010B52748006840F47F00254908600846BF
:101EB000006840F07F400860FFF7E8FF00202149FC
:101EC0000860FEF795F9002010BD704700BFBF20E5
:101ED00080F31188BFF34F8FBFF36F8F00BF194896
:101EE0000068401C17490860704716480068401E8B
:101EF000144908600846006820B9002080F3118862
:101F000000BF00BF704710B500BFBF2080F311882D
:101F1000BFF34F8FBFF36F8F00BFFFF729F820B1DA
:101F20004FF0805006491C39086000BF002080F344
:101F3000118800BF10BD0000591E00083F190100A4
:101F400020ED00E07C00002070B505460B4C00BF82
:101F50000B48844200D30DE02068A84208D1606994
:101F600008B160698047A06908B1A069804701E0B5
:101F70001C34EDE700BF002070BD000084010008A4
:101F8000A00100087047704770477047704770475E
:101F90007047754600F028F8AE460500694653467E
:101FA00020F00700854618B020B5FEF769F9BDE8B6
:101FB00020404FF000064FF000074FF000084FF0B0
:101FC000000B21F00701AC46ACE8C009ACE8C00941
:101FD000ACE8C009ACE8C0098D4670470446AFF3D1
:101FE00000802046FEF7EBF800487047484100208B
:101FF00001491820ABBEFEE72600020070476D6164
:102000006368696E655F6D696E697379730000005E
:10201000000000000102030401020304060708098E
:102020000204060800A24A040000000000000000AC
:102030000102030406070809000000000000000078
:102040000000000000000000000000000000000090
:102050000000000000000000000000000000000080
:102060000000000000000000000000000000000070
:102070000000000000000000000000000000000060
:10208000000000000000000000000000AAAAAAAAA8
:040000050800026588
:00000001FF
